{
  "_format": "hh-sol-artifact-1",
  "contractName": "CTVendor",
  "sourceName": "contracts/CTVendor.sol",
  "abi": [
    {
      "inputs": [
        {
          "internalType": "address",
          "name": "_collateral",
          "type": "address"
        },
        {
          "internalType": "address",
          "name": "_conditionalTokens",
          "type": "address"
        }
      ],
      "stateMutability": "nonpayable",
      "type": "constructor"
    },
    {
      "anonymous": false,
      "inputs": [
        {
          "indexed": false,
          "internalType": "uint256",
          "name": "amount",
          "type": "uint256"
        }
      ],
      "name": "LogAmount",
      "type": "event"
    },
    {
      "anonymous": false,
      "inputs": [
        {
          "indexed": false,
          "internalType": "address",
          "name": "from",
          "type": "address"
        },
        {
          "indexed": false,
          "internalType": "uint256",
          "name": "balance",
          "type": "uint256"
        }
      ],
      "name": "LogCollateralBalance",
      "type": "event"
    },
    {
      "stateMutability": "payable",
      "type": "fallback"
    },
    {
      "inputs": [
        {
          "internalType": "address",
          "name": "_oracle",
          "type": "address"
        },
        {
          "internalType": "bytes32",
          "name": "_questionId",
          "type": "bytes32"
        },
        {
          "internalType": "uint256",
          "name": "_numOutcomes",
          "type": "uint256"
        }
      ],
      "name": "createCondition",
      "outputs": [],
      "stateMutability": "nonpayable",
      "type": "function"
    },
    {
      "inputs": [
        {
          "internalType": "address",
          "name": "operator",
          "type": "address"
        },
        {
          "internalType": "address",
          "name": "from",
          "type": "address"
        },
        {
          "internalType": "uint256[]",
          "name": "ids",
          "type": "uint256[]"
        },
        {
          "internalType": "uint256[]",
          "name": "values",
          "type": "uint256[]"
        },
        {
          "internalType": "bytes",
          "name": "data",
          "type": "bytes"
        }
      ],
      "name": "onERC1155BatchReceived",
      "outputs": [
        {
          "internalType": "bytes4",
          "name": "",
          "type": "bytes4"
        }
      ],
      "stateMutability": "nonpayable",
      "type": "function"
    },
    {
      "inputs": [
        {
          "internalType": "address",
          "name": "operator",
          "type": "address"
        },
        {
          "internalType": "address",
          "name": "from",
          "type": "address"
        },
        {
          "internalType": "uint256",
          "name": "id",
          "type": "uint256"
        },
        {
          "internalType": "uint256",
          "name": "value",
          "type": "uint256"
        },
        {
          "internalType": "bytes",
          "name": "data",
          "type": "bytes"
        }
      ],
      "name": "onERC1155Received",
      "outputs": [
        {
          "internalType": "bytes4",
          "name": "",
          "type": "bytes4"
        }
      ],
      "stateMutability": "nonpayable",
      "type": "function"
    },
    {
      "inputs": [
        {
          "internalType": "uint256",
          "name": "amount",
          "type": "uint256"
        }
      ],
      "name": "splitCollateral",
      "outputs": [],
      "stateMutability": "nonpayable",
      "type": "function"
    },
    {
      "inputs": [
        {
          "internalType": "bytes32",
          "name": "",
          "type": "bytes32"
        },
        {
          "internalType": "uint256",
          "name": "",
          "type": "uint256"
        }
      ],
      "name": "tokenBalance",
      "outputs": [
        {
          "internalType": "uint256",
          "name": "",
          "type": "uint256"
        }
      ],
      "stateMutability": "view",
      "type": "function"
    },
    {
      "inputs": [
        {
          "internalType": "uint256",
          "name": "indexSet",
          "type": "uint256"
        },
        {
          "internalType": "address",
          "name": "to",
          "type": "address"
        },
        {
          "internalType": "uint256",
          "name": "amount",
          "type": "uint256"
        }
      ],
      "name": "transferTokens",
      "outputs": [],
      "stateMutability": "nonpayable",
      "type": "function"
    }
  ],
  "bytecode": "0x608060405234801561001057600080fd5b506040516109c13803806109c18339818101604052604081101561003357600080fd5b508051602090910151600080546001600160a01b039384166001600160a01b031991821617909155600180549390921692169190911790556109478061007a6000396000f3fe6080604052600436106100555760003560e01c806322ea1460146100575780632aa5313d14610096578063bc197c81146100d5578063ed0f794014610226578063f23a6e6114610268578063f7057f3214610308575b005b34801561006357600080fd5b506100556004803603606081101561007a57600080fd5b508035906001600160a01b036020820135169060400135610332565b3480156100a257600080fd5b50610055600480360360608110156100b957600080fd5b506001600160a01b0381351690602081013590604001356104d6565b3480156100e157600080fd5b50610209600480360360a08110156100f857600080fd5b6001600160a01b038235811692602081013590911691810190606081016040820135600160201b81111561012b57600080fd5b82018360208201111561013d57600080fd5b803590602001918460208302840111600160201b8311171561015e57600080fd5b919390929091602081019035600160201b81111561017b57600080fd5b82018360208201111561018d57600080fd5b803590602001918460208302840111600160201b831117156101ae57600080fd5b919390929091602081019035600160201b8111156101cb57600080fd5b8201836020820111156101dd57600080fd5b803590602001918460018302840111600160201b831117156101fe57600080fd5b5090925090506105f9565b604080516001600160e01b03199092168252519081900360200190f35b34801561023257600080fd5b506102566004803603604081101561024957600080fd5b508035906020013561060d565b60408051918252519081900360200190f35b34801561027457600080fd5b50610209600480360360a081101561028b57600080fd5b6001600160a01b03823581169260208101359091169160408201359160608101359181019060a081016080820135600160201b8111156102ca57600080fd5b8201836020820111156102dc57600080fd5b803590602001918460018302840111600160201b831117156102fd57600080fd5b50909250905061062a565b34801561031457600080fd5b506100556004803603602081101561032b57600080fd5b503561063c565b6001546005546040805163856296f760e01b8152600060048201819052602482019390935260448101879052905191926001600160a01b03169163856296f791606480820192602092909190829003018186803b15801561039257600080fd5b505afa1580156103a6573d6000803e3d6000fd5b505050506040513d60208110156103bc57600080fd5b5051600154600080546040805163039dd75360e41b81526001600160a01b03928316600482015260248101869052905194955091939216916339dd753091604480820192602092909190829003018186803b15801561041a57600080fd5b505afa15801561042e573d6000803e3d6000fd5b505050506040513d602081101561044457600080fd5b505160015460408051637921219560e11b81523060048201526001600160a01b038881166024830152604482018590526064820188905260a06084830152600060a4830181905292519495509092169263f242432a9260e480820193929182900301818387803b1580156104b757600080fd5b505af11580156104cb573d6000803e3d6000fd5b505050505050505050565b6001546040805163365bb9d560e21b81526001600160a01b03868116600483015260248201869052604482018590529151919092169163d96ee75491606480830192600092919082900301818387803b15801561053257600080fd5b505af1158015610546573d6000803e3d6000fd5b5050600280546001600160a01b0319166001600160a01b038781169182179092556003869055600485815560015460408051634296357160e11b8152928301939093526024820188905260448201879052915191909216935063852c6ae292506064808301926020929190829003018186803b1580156105c557600080fd5b505afa1580156105d9573d6000803e3d6000fd5b505050506040513d60208110156105ef57600080fd5b5051600555505050565b63bc197c8160e01b98975050505050505050565b600660209081526000928352604080842090915290825290205481565b63f23a6e6160e01b9695505050505050565b600080546001546040805163095ea7b360e01b81526001600160a01b039283166004820152602481018690529051919092169263095ea7b392604480820193602093909283900390910190829087803b15801561069857600080fd5b505af11580156106ac573d6000803e3d6000fd5b505050506040513d60208110156106c257600080fd5b50506040805182815290517f2b6d16daba1ad641729e00d9e8a460dbd835d4219388907a9a585ab8ac2532cb9181900360200190a1600054604080516370a0823160e01b815233600482015290517fb90b4efc323ffcc8bb8bd6039c53cd8f44b7f5d87f0151a0e6d44c184230dd029230926001600160a01b03909116916370a0823191602480820192602092909190829003018186803b15801561076657600080fd5b505afa15801561077a573d6000803e3d6000fd5b505050506040513d602081101561079057600080fd5b5051604080516001600160a01b03909316835260208301919091528051918290030190a160408051600280825260608083018452926020830190803683370190505090506001816000815181106107e357fe5b6020026020010181815250506002816001815181106107fe57fe5b602090810291909101810191909152600154600080546005546040516372ce427560e01b81526001600160a01b03928316600482018181526024830186905260448301849052608483018a905260a060648401908152895160a4850152895195909716976372ce4275979296958a948c949260c49091019186820191028083838b5b83811015610898578181015183820152602001610880565b505050509050019650505050505050600060405180830381600087803b1580156108c157600080fd5b505af11580156108d5573d6000803e3d6000fd5b5050600380546000908152600660208181526040808420848052825280842089905593548352908152828220600183529052209390935550505056fea26469706673582212201d8bdd54a28a38992986283282198bdb4252ae784f58de101e24a37156c5c6ed64736f6c63430006070033",
  "linkReferences": {},
  "deployedLinkReferences": {}
}