{
  "_format": "hh-sol-artifact-1",
  "contractName": "CTWallet",
  "sourceName": "contracts/CTWallet.sol",
  "abi": [
    {
      "inputs": [
        {
          "internalType": "address",
          "name": "_collateral",
          "type": "address"
        },
        {
          "internalType": "address",
          "name": "_conditionalTokens",
          "type": "address"
        }
      ],
      "stateMutability": "nonpayable",
      "type": "constructor"
    },
    {
      "inputs": [
        {
          "internalType": "address",
          "name": "operator",
          "type": "address"
        },
        {
          "internalType": "address",
          "name": "from",
          "type": "address"
        },
        {
          "internalType": "uint256[]",
          "name": "ids",
          "type": "uint256[]"
        },
        {
          "internalType": "uint256[]",
          "name": "values",
          "type": "uint256[]"
        },
        {
          "internalType": "bytes",
          "name": "data",
          "type": "bytes"
        }
      ],
      "name": "onERC1155BatchReceived",
      "outputs": [
        {
          "internalType": "bytes4",
          "name": "",
          "type": "bytes4"
        }
      ],
      "stateMutability": "nonpayable",
      "type": "function"
    },
    {
      "inputs": [
        {
          "internalType": "address",
          "name": "operator",
          "type": "address"
        },
        {
          "internalType": "address",
          "name": "from",
          "type": "address"
        },
        {
          "internalType": "uint256",
          "name": "id",
          "type": "uint256"
        },
        {
          "internalType": "uint256",
          "name": "value",
          "type": "uint256"
        },
        {
          "internalType": "bytes",
          "name": "data",
          "type": "bytes"
        }
      ],
      "name": "onERC1155Received",
      "outputs": [
        {
          "internalType": "bytes4",
          "name": "",
          "type": "bytes4"
        }
      ],
      "stateMutability": "nonpayable",
      "type": "function"
    },
    {
      "inputs": [
        {
          "internalType": "bytes32",
          "name": "conditionId",
          "type": "bytes32"
        },
        {
          "internalType": "uint256[]",
          "name": "indexSets",
          "type": "uint256[]"
        }
      ],
      "name": "redeemTokens",
      "outputs": [],
      "stateMutability": "nonpayable",
      "type": "function"
    },
    {
      "inputs": [
        {
          "internalType": "bytes32",
          "name": "",
          "type": "bytes32"
        },
        {
          "internalType": "uint256",
          "name": "",
          "type": "uint256"
        }
      ],
      "name": "tokenBalance",
      "outputs": [
        {
          "internalType": "uint256",
          "name": "",
          "type": "uint256"
        }
      ],
      "stateMutability": "view",
      "type": "function"
    },
    {
      "inputs": [
        {
          "internalType": "address",
          "name": "to",
          "type": "address"
        },
        {
          "internalType": "uint256",
          "name": "amount",
          "type": "uint256"
        }
      ],
      "name": "transferCollateral",
      "outputs": [],
      "stateMutability": "nonpayable",
      "type": "function"
    }
  ],
  "bytecode": "0x608060405234801561001057600080fd5b506040516105e53803806105e58339818101604052604081101561003357600080fd5b508051602090910151600080546001600160a01b039384166001600160a01b0319918216179091556001805493909216921691909117905561056b8061007a6000396000f3fe608060405234801561001057600080fd5b50600436106100575760003560e01c8063614f08691461005c578063816b1e8f146100d3578063bc197c81146100ff578063ed0f794014610243578063f23a6e6114610278575b600080fd5b6100d16004803603604081101561007257600080fd5b81359190810190604081016020820135600160201b81111561009357600080fd5b8201836020820111156100a557600080fd5b803590602001918460208302840111600160201b831117156100c657600080fd5b50909250905061030b565b005b6100d1600480360360408110156100e957600080fd5b506001600160a01b0381351690602001356103c8565b610226600480360360a081101561011557600080fd5b6001600160a01b038235811692602081013590911691810190606081016040820135600160201b81111561014857600080fd5b82018360208201111561015a57600080fd5b803590602001918460208302840111600160201b8311171561017b57600080fd5b919390929091602081019035600160201b81111561019857600080fd5b8201836020820111156101aa57600080fd5b803590602001918460208302840111600160201b831117156101cb57600080fd5b919390929091602081019035600160201b8111156101e857600080fd5b8201836020820111156101fa57600080fd5b803590602001918460018302840111600160201b8311171561021b57600080fd5b509092509050610451565b604080516001600160e01b03199092168252519081900360200190f35b6102666004803603604081101561025957600080fd5b5080359060200135610479565b60408051918252519081900360200190f35b610226600480360360a081101561028e57600080fd5b6001600160a01b03823581169260208101359091169160408201359160608101359181019060a081016080820135600160201b8111156102cd57600080fd5b8201836020820111156102df57600080fd5b803590602001918460018302840111600160201b8311171561030057600080fd5b509092509050610496565b60015460008054604051626dc0df60e21b81526001600160a01b039182166004820181815260248301859052604483018990526080606484019081526084840188905293909516946301b7037c949193919289928992899290919060a401846020850280828437600081840152601f19601f8201169050808301925050509650505050505050600060405180830381600087803b1580156103ab57600080fd5b505af11580156103bf573d6000803e3d6000fd5b50505050505050565b600080546040805163a9059cbb60e01b81526001600160a01b038681166004830152602482018690529151919092169263a9059cbb92604480820193602093909283900390910190829087803b15801561042157600080fd5b505af1158015610435573d6000803e3d6000fd5b505050506040513d602081101561044b57600080fd5b50505050565b600060405180806104bd604191396040519081900360410190209a9950505050505050505050565b600660209081526000928352604080842090915290825290205481565b600060405180806104fe603891396040519081900360380190209897505050505050505056fe6f6e455243313135354261746368526563656976656428616464726573732c616464726573732c75696e743235365b5d2c75696e743235365b5d2c6279746573296f6e45524331313535526563656976656428616464726573732c616464726573732c75696e743235362c75696e743235362c627974657329a2646970667358221220e269329ff43e456cd4331f3ede5ece4f28e4839755ce3c217ac9c5466ecf967e64736f6c63430006070033",
  "linkReferences": {},
  "deployedLinkReferences": {}
}