{
  "_format": "hh-sol-artifact-1",
  "contractName": "ConditionalTokens",
  "sourceName": "contracts/ConditionalTokens.sol",
  "abi": [
    {
      "inputs": [],
      "stateMutability": "nonpayable",
      "type": "constructor"
    },
    {
      "anonymous": false,
      "inputs": [
        {
          "indexed": true,
          "internalType": "address",
          "name": "account",
          "type": "address"
        },
        {
          "indexed": true,
          "internalType": "address",
          "name": "operator",
          "type": "address"
        },
        {
          "indexed": false,
          "internalType": "bool",
          "name": "approved",
          "type": "bool"
        }
      ],
      "name": "ApprovalForAll",
      "type": "event"
    },
    {
      "anonymous": false,
      "inputs": [
        {
          "indexed": true,
          "internalType": "bytes32",
          "name": "conditionId",
          "type": "bytes32"
        },
        {
          "indexed": true,
          "internalType": "address",
          "name": "oracle",
          "type": "address"
        },
        {
          "indexed": true,
          "internalType": "bytes32",
          "name": "questionId",
          "type": "bytes32"
        },
        {
          "indexed": false,
          "internalType": "uint256",
          "name": "outcomeSlotCount",
          "type": "uint256"
        }
      ],
      "name": "ConditionPreparation",
      "type": "event"
    },
    {
      "anonymous": false,
      "inputs": [
        {
          "indexed": true,
          "internalType": "bytes32",
          "name": "conditionId",
          "type": "bytes32"
        },
        {
          "indexed": true,
          "internalType": "address",
          "name": "oracle",
          "type": "address"
        },
        {
          "indexed": true,
          "internalType": "bytes32",
          "name": "questionId",
          "type": "bytes32"
        },
        {
          "indexed": false,
          "internalType": "uint256",
          "name": "outcomeSlotCount",
          "type": "uint256"
        },
        {
          "indexed": false,
          "internalType": "uint256[]",
          "name": "payoutNumerators",
          "type": "uint256[]"
        }
      ],
      "name": "ConditionResolution",
      "type": "event"
    },
    {
      "anonymous": false,
      "inputs": [
        {
          "indexed": true,
          "internalType": "address",
          "name": "redeemer",
          "type": "address"
        },
        {
          "indexed": true,
          "internalType": "contract IERC20",
          "name": "collateralToken",
          "type": "address"
        },
        {
          "indexed": true,
          "internalType": "bytes32",
          "name": "parentCollectionId",
          "type": "bytes32"
        },
        {
          "indexed": false,
          "internalType": "bytes32",
          "name": "conditionId",
          "type": "bytes32"
        },
        {
          "indexed": false,
          "internalType": "uint256[]",
          "name": "indexSets",
          "type": "uint256[]"
        },
        {
          "indexed": false,
          "internalType": "uint256",
          "name": "payout",
          "type": "uint256"
        }
      ],
      "name": "PayoutRedemption",
      "type": "event"
    },
    {
      "anonymous": false,
      "inputs": [
        {
          "indexed": true,
          "internalType": "address",
          "name": "stakeholder",
          "type": "address"
        },
        {
          "indexed": false,
          "internalType": "contract IERC20",
          "name": "collateralToken",
          "type": "address"
        },
        {
          "indexed": true,
          "internalType": "bytes32",
          "name": "parentCollectionId",
          "type": "bytes32"
        },
        {
          "indexed": true,
          "internalType": "bytes32",
          "name": "conditionId",
          "type": "bytes32"
        },
        {
          "indexed": false,
          "internalType": "uint256[]",
          "name": "partition",
          "type": "uint256[]"
        },
        {
          "indexed": false,
          "internalType": "uint256",
          "name": "amount",
          "type": "uint256"
        }
      ],
      "name": "PositionSplit",
      "type": "event"
    },
    {
      "anonymous": false,
      "inputs": [
        {
          "indexed": true,
          "internalType": "address",
          "name": "stakeholder",
          "type": "address"
        },
        {
          "indexed": false,
          "internalType": "contract IERC20",
          "name": "collateralToken",
          "type": "address"
        },
        {
          "indexed": true,
          "internalType": "bytes32",
          "name": "parentCollectionId",
          "type": "bytes32"
        },
        {
          "indexed": true,
          "internalType": "bytes32",
          "name": "conditionId",
          "type": "bytes32"
        },
        {
          "indexed": false,
          "internalType": "uint256[]",
          "name": "partition",
          "type": "uint256[]"
        },
        {
          "indexed": false,
          "internalType": "uint256",
          "name": "amount",
          "type": "uint256"
        }
      ],
      "name": "PositionsMerge",
      "type": "event"
    },
    {
      "anonymous": false,
      "inputs": [
        {
          "indexed": true,
          "internalType": "address",
          "name": "operator",
          "type": "address"
        },
        {
          "indexed": true,
          "internalType": "address",
          "name": "from",
          "type": "address"
        },
        {
          "indexed": true,
          "internalType": "address",
          "name": "to",
          "type": "address"
        },
        {
          "indexed": false,
          "internalType": "uint256[]",
          "name": "ids",
          "type": "uint256[]"
        },
        {
          "indexed": false,
          "internalType": "uint256[]",
          "name": "values",
          "type": "uint256[]"
        }
      ],
      "name": "TransferBatch",
      "type": "event"
    },
    {
      "anonymous": false,
      "inputs": [
        {
          "indexed": true,
          "internalType": "address",
          "name": "operator",
          "type": "address"
        },
        {
          "indexed": true,
          "internalType": "address",
          "name": "from",
          "type": "address"
        },
        {
          "indexed": true,
          "internalType": "address",
          "name": "to",
          "type": "address"
        },
        {
          "indexed": false,
          "internalType": "uint256",
          "name": "id",
          "type": "uint256"
        },
        {
          "indexed": false,
          "internalType": "uint256",
          "name": "value",
          "type": "uint256"
        }
      ],
      "name": "TransferSingle",
      "type": "event"
    },
    {
      "anonymous": false,
      "inputs": [
        {
          "indexed": false,
          "internalType": "string",
          "name": "value",
          "type": "string"
        },
        {
          "indexed": true,
          "internalType": "uint256",
          "name": "id",
          "type": "uint256"
        }
      ],
      "name": "URI",
      "type": "event"
    },
    {
      "inputs": [
        {
          "internalType": "address",
          "name": "account",
          "type": "address"
        },
        {
          "internalType": "uint256",
          "name": "id",
          "type": "uint256"
        }
      ],
      "name": "balanceOf",
      "outputs": [
        {
          "internalType": "uint256",
          "name": "",
          "type": "uint256"
        }
      ],
      "stateMutability": "view",
      "type": "function"
    },
    {
      "inputs": [
        {
          "internalType": "address[]",
          "name": "accounts",
          "type": "address[]"
        },
        {
          "internalType": "uint256[]",
          "name": "ids",
          "type": "uint256[]"
        }
      ],
      "name": "balanceOfBatch",
      "outputs": [
        {
          "internalType": "uint256[]",
          "name": "",
          "type": "uint256[]"
        }
      ],
      "stateMutability": "view",
      "type": "function"
    },
    {
      "inputs": [
        {
          "internalType": "bytes32",
          "name": "parentCollectionId",
          "type": "bytes32"
        },
        {
          "internalType": "bytes32",
          "name": "conditionId",
          "type": "bytes32"
        },
        {
          "internalType": "uint256",
          "name": "indexSet",
          "type": "uint256"
        }
      ],
      "name": "getCollectionId",
      "outputs": [
        {
          "internalType": "bytes32",
          "name": "",
          "type": "bytes32"
        }
      ],
      "stateMutability": "view",
      "type": "function"
    },
    {
      "inputs": [
        {
          "internalType": "address",
          "name": "oracle",
          "type": "address"
        },
        {
          "internalType": "bytes32",
          "name": "questionId",
          "type": "bytes32"
        },
        {
          "internalType": "uint256",
          "name": "outcomeSlotCount",
          "type": "uint256"
        }
      ],
      "name": "getConditionId",
      "outputs": [
        {
          "internalType": "bytes32",
          "name": "",
          "type": "bytes32"
        }
      ],
      "stateMutability": "pure",
      "type": "function"
    },
    {
      "inputs": [
        {
          "internalType": "bytes32",
          "name": "conditionId",
          "type": "bytes32"
        }
      ],
      "name": "getOutcomeSlotCount",
      "outputs": [
        {
          "internalType": "uint256",
          "name": "",
          "type": "uint256"
        }
      ],
      "stateMutability": "view",
      "type": "function"
    },
    {
      "inputs": [
        {
          "internalType": "contract IERC20",
          "name": "collateralToken",
          "type": "address"
        },
        {
          "internalType": "bytes32",
          "name": "collectionId",
          "type": "bytes32"
        }
      ],
      "name": "getPositionId",
      "outputs": [
        {
          "internalType": "uint256",
          "name": "",
          "type": "uint256"
        }
      ],
      "stateMutability": "pure",
      "type": "function"
    },
    {
      "inputs": [
        {
          "internalType": "address",
          "name": "account",
          "type": "address"
        },
        {
          "internalType": "address",
          "name": "operator",
          "type": "address"
        }
      ],
      "name": "isApprovedForAll",
      "outputs": [
        {
          "internalType": "bool",
          "name": "",
          "type": "bool"
        }
      ],
      "stateMutability": "view",
      "type": "function"
    },
    {
      "inputs": [
        {
          "internalType": "contract IERC20",
          "name": "collateralToken",
          "type": "address"
        },
        {
          "internalType": "bytes32",
          "name": "parentCollectionId",
          "type": "bytes32"
        },
        {
          "internalType": "bytes32",
          "name": "conditionId",
          "type": "bytes32"
        },
        {
          "internalType": "uint256[]",
          "name": "partition",
          "type": "uint256[]"
        },
        {
          "internalType": "uint256",
          "name": "amount",
          "type": "uint256"
        }
      ],
      "name": "mergePositions",
      "outputs": [],
      "stateMutability": "nonpayable",
      "type": "function"
    },
    {
      "inputs": [
        {
          "internalType": "bytes32",
          "name": "",
          "type": "bytes32"
        }
      ],
      "name": "payoutDenominator",
      "outputs": [
        {
          "internalType": "uint256",
          "name": "",
          "type": "uint256"
        }
      ],
      "stateMutability": "view",
      "type": "function"
    },
    {
      "inputs": [
        {
          "internalType": "bytes32",
          "name": "",
          "type": "bytes32"
        },
        {
          "internalType": "uint256",
          "name": "",
          "type": "uint256"
        }
      ],
      "name": "payoutNumerators",
      "outputs": [
        {
          "internalType": "uint256",
          "name": "",
          "type": "uint256"
        }
      ],
      "stateMutability": "view",
      "type": "function"
    },
    {
      "inputs": [
        {
          "internalType": "address",
          "name": "oracle",
          "type": "address"
        },
        {
          "internalType": "bytes32",
          "name": "questionId",
          "type": "bytes32"
        },
        {
          "internalType": "uint256",
          "name": "outcomeSlotCount",
          "type": "uint256"
        }
      ],
      "name": "prepareCondition",
      "outputs": [],
      "stateMutability": "nonpayable",
      "type": "function"
    },
    {
      "inputs": [
        {
          "internalType": "contract IERC20",
          "name": "collateralToken",
          "type": "address"
        },
        {
          "internalType": "bytes32",
          "name": "parentCollectionId",
          "type": "bytes32"
        },
        {
          "internalType": "bytes32",
          "name": "conditionId",
          "type": "bytes32"
        },
        {
          "internalType": "uint256[]",
          "name": "indexSets",
          "type": "uint256[]"
        }
      ],
      "name": "redeemPositions",
      "outputs": [],
      "stateMutability": "nonpayable",
      "type": "function"
    },
    {
      "inputs": [
        {
          "internalType": "bytes32",
          "name": "questionId",
          "type": "bytes32"
        },
        {
          "internalType": "uint256[]",
          "name": "payouts",
          "type": "uint256[]"
        }
      ],
      "name": "reportPayouts",
      "outputs": [],
      "stateMutability": "nonpayable",
      "type": "function"
    },
    {
      "inputs": [
        {
          "internalType": "address",
          "name": "from",
          "type": "address"
        },
        {
          "internalType": "address",
          "name": "to",
          "type": "address"
        },
        {
          "internalType": "uint256[]",
          "name": "ids",
          "type": "uint256[]"
        },
        {
          "internalType": "uint256[]",
          "name": "amounts",
          "type": "uint256[]"
        },
        {
          "internalType": "bytes",
          "name": "data",
          "type": "bytes"
        }
      ],
      "name": "safeBatchTransferFrom",
      "outputs": [],
      "stateMutability": "nonpayable",
      "type": "function"
    },
    {
      "inputs": [
        {
          "internalType": "address",
          "name": "from",
          "type": "address"
        },
        {
          "internalType": "address",
          "name": "to",
          "type": "address"
        },
        {
          "internalType": "uint256",
          "name": "id",
          "type": "uint256"
        },
        {
          "internalType": "uint256",
          "name": "amount",
          "type": "uint256"
        },
        {
          "internalType": "bytes",
          "name": "data",
          "type": "bytes"
        }
      ],
      "name": "safeTransferFrom",
      "outputs": [],
      "stateMutability": "nonpayable",
      "type": "function"
    },
    {
      "inputs": [
        {
          "internalType": "address",
          "name": "operator",
          "type": "address"
        },
        {
          "internalType": "bool",
          "name": "approved",
          "type": "bool"
        }
      ],
      "name": "setApprovalForAll",
      "outputs": [],
      "stateMutability": "nonpayable",
      "type": "function"
    },
    {
      "inputs": [
        {
          "internalType": "contract IERC20",
          "name": "collateralToken",
          "type": "address"
        },
        {
          "internalType": "bytes32",
          "name": "parentCollectionId",
          "type": "bytes32"
        },
        {
          "internalType": "bytes32",
          "name": "conditionId",
          "type": "bytes32"
        },
        {
          "internalType": "uint256[]",
          "name": "partition",
          "type": "uint256[]"
        },
        {
          "internalType": "uint256",
          "name": "amount",
          "type": "uint256"
        }
      ],
      "name": "splitPosition",
      "outputs": [],
      "stateMutability": "nonpayable",
      "type": "function"
    },
    {
      "inputs": [
        {
          "internalType": "bytes4",
          "name": "interfaceId",
          "type": "bytes4"
        }
      ],
      "name": "supportsInterface",
      "outputs": [
        {
          "internalType": "bool",
          "name": "",
          "type": "bool"
        }
      ],
      "stateMutability": "view",
      "type": "function"
    },
    {
      "inputs": [
        {
          "internalType": "uint256",
          "name": "",
          "type": "uint256"
        }
      ],
      "name": "uri",
      "outputs": [
        {
          "internalType": "string",
          "name": "",
          "type": "string"
        }
      ],
      "stateMutability": "view",
      "type": "function"
    }
  ],
  "bytecode": "0x60806040523480156200001157600080fd5b506040805160208101909152600081526200003c6301ffc9a760e01b6001600160e01b036200008d16565b62000050816001600160e01b036200011216565b6200006b636cdb3d1360e11b6001600160e01b036200008d16565b620000866303a24d0760e21b6001600160e01b036200008d16565b50620001d0565b6001600160e01b03198082161415620000ed576040805162461bcd60e51b815260206004820152601c60248201527f4552433136353a20696e76616c696420696e7465726661636520696400000000604482015290519081900360640190fd5b6001600160e01b0319166000908152602081905260409020805460ff19166001179055565b8051620001279060039060208401906200012b565b5050565b828054600181600116156101000203166002900490600052602060002090601f016020900481019282601f106200016e57805160ff19168380011785556200019e565b828001600101855582156200019e579182015b828111156200019e57825182559160200191906001019062000181565b50620001ac929150620001b0565b5090565b620001cd91905b80821115620001ac5760008155600101620001b7565b90565b61403d80620001e06000396000f3fe608060405234801561001057600080fd5b50600436106101205760003560e01c8063852c6ae2116100ad578063d42dc0c211610071578063d42dc0c214610851578063d96ee7541461086e578063dd34de67146108a0578063e985e9c5146108bd578063f242432a146108eb57610120565b8063852c6ae2146106c9578063856296f7146106fb5780639e7212ad14610724578063a22cb465146107ae578063c49298ac146107dc57610120565b80630e89341c116100f45780630e89341c1461024d5780632eb2c2d6146102df57806339dd7530146104a05780634e1273f4146104cc57806372ce42751461063f57610120565b8062fdd58e1461012557806301b7037c1461016357806301ffc9a7146101ef5780630504c8141461022a575b600080fd5b6101516004803603604081101561013b57600080fd5b506001600160a01b0381351690602001356109b4565b60408051918252519081900360200190f35b6101ed6004803603608081101561017957600080fd5b6001600160a01b038235169160208101359160408201359190810190608081016060820135600160201b8111156101af57600080fd5b8201836020820111156101c157600080fd5b803590602001918460208302840111600160201b831117156101e257600080fd5b509092509050610a26565b005b6102166004803603602081101561020557600080fd5b50356001600160e01b031916610da5565b604080519115158252519081900360200190f35b6101516004803603604081101561024057600080fd5b5080359060200135610dc4565b61026a6004803603602081101561026357600080fd5b5035610df2565b6040805160208082528351818301528351919283929083019185019080838360005b838110156102a457818101518382015260200161028c565b50505050905090810190601f1680156102d15780820380516001836020036101000a031916815260200191505b509250505060405180910390f35b6101ed600480360360a08110156102f557600080fd5b6001600160a01b038235811692602081013590911691810190606081016040820135600160201b81111561032857600080fd5b82018360208201111561033a57600080fd5b803590602001918460208302840111600160201b8311171561035b57600080fd5b9190808060200260200160405190810160405280939291908181526020018383602002808284376000920191909152509295949360208101935035915050600160201b8111156103aa57600080fd5b8201836020820111156103bc57600080fd5b803590602001918460208302840111600160201b831117156103dd57600080fd5b9190808060200260200160405190810160405280939291908181526020018383602002808284376000920191909152509295949360208101935035915050600160201b81111561042c57600080fd5b82018360208201111561043e57600080fd5b803590602001918460018302840111600160201b8311171561045f57600080fd5b91908080601f016020809104026020016040519081016040528093929190818152602001838380828437600092019190915250929550610e8a945050505050565b610151600480360360408110156104b657600080fd5b506001600160a01b038135169060200135611188565b6105ef600480360360408110156104e257600080fd5b810190602081018135600160201b8111156104fc57600080fd5b82018360208201111561050e57600080fd5b803590602001918460208302840111600160201b8311171561052f57600080fd5b9190808060200260200160405190810160405280939291908181526020018383602002808284376000920191909152509295949360208101935035915050600160201b81111561057e57600080fd5b82018360208201111561059057600080fd5b803590602001918460208302840111600160201b831117156105b157600080fd5b91908080602002602001604051908101604052809392919081815260200183836020028082843760009201919091525092955061119b945050505050565b60408051602080825283518183015283519192839290830191858101910280838360005b8381101561062b578181015183820152602001610613565b505050509050019250505060405180910390f35b6101ed600480360360a081101561065557600080fd5b6001600160a01b038235169160208101359160408201359190810190608081016060820135600160201b81111561068b57600080fd5b82018360208201111561069d57600080fd5b803590602001918460208302840111600160201b831117156106be57600080fd5b919350915035611319565b610151600480360360608110156106df57600080fd5b506001600160a01b038135169060208101359060400135611729565b6101516004803603606081101561071157600080fd5b508035906020810135906040013561173e565b6101ed600480360360a081101561073a57600080fd5b6001600160a01b038235169160208101359160408201359190810190608081016060820135600160201b81111561077057600080fd5b82018360208201111561078257600080fd5b803590602001918460208302840111600160201b831117156107a357600080fd5b91935091503561174b565b6101ed600480360360408110156107c457600080fd5b506001600160a01b0381351690602001351515611b6b565b6101ed600480360360408110156107f257600080fd5b81359190810190604081016020820135600160201b81111561081357600080fd5b82018360208201111561082557600080fd5b803590602001918460208302840111600160201b8311171561084657600080fd5b509092509050611c5a565b6101516004803603602081101561086757600080fd5b5035611f44565b6101ed6004803603606081101561088457600080fd5b506001600160a01b038135169060208101359060400135611f56565b610151600480360360208110156108b657600080fd5b5035612105565b610216600480360360408110156108d357600080fd5b506001600160a01b0381358116916020013516612117565b6101ed600480360360a081101561090157600080fd5b6001600160a01b03823581169260208101359091169160408201359160608101359181019060a081016080820135600160201b81111561094057600080fd5b82018360208201111561095257600080fd5b803590602001918460018302840111600160201b8311171561097357600080fd5b91908080601f016020809104026020016040519081016040528093929190818152602001838380828437600092019190915250929550612145945050505050565b60006001600160a01b0383166109fb5760405162461bcd60e51b815260040180806020018281038252602b815260200180613d67602b913960400191505060405180910390fd5b5060008181526001602090815260408083206001600160a01b03861684529091529020545b92915050565b60008381526005602052604090205480610a715760405162461bcd60e51b8152600401808060200182810382526025815260200180613d426025913960400191505060405180910390fd5b60008481526004602052604090205480610acf576040805162461bcd60e51b815260206004820152601a60248201527918dbdb991a5d1a5bdb881b9bdd081c1c995c185c9959081e595d60321b604482015290519081900360640190fd5b60006000196001831b01815b85811015610c27576000878783818110610af157fe5b905060200201359050600081118015610b0957508281105b610b52576040805162461bcd60e51b815260206004820152601560248201527419dbdd081a5b9d985b1a59081a5b99195e081cd95d605a1b604482015290519081900360640190fd5b6000610b688c610b638d8d86612316565b612645565b90506000805b87811015610bc5576001811b841615610bbd5760008c81526004602052604090208054610bba919083908110610ba057fe5b90600052602060002001548361268990919063ffffffff16565b91505b600101610b6e565b506000610bd233846109b4565b90508015610c1757610c0a610bfd8a610bf1848663ffffffff6126e316565b9063ffffffff61273c16565b889063ffffffff61268916565b9650610c1733848361277e565b505060019092019150610adb9050565b508115610d125787610cee576040805163a9059cbb60e01b81523360048201526024810184905290516001600160a01b038b169163a9059cbb9160448083019260209291908290030181600087803b158015610c8257600080fd5b505af1158015610c96573d6000803e3d6000fd5b505050506040513d6020811015610cac57600080fd5b5051610ce95760405162461bcd60e51b815260040180806020018281038252602b815260200180613dc3602b913960400191505060405180910390fd5b610d12565b610d1233610cfc8b8b612645565b84604051806020016040528060008152506128b7565b87896001600160a01b0316336001600160a01b03167f2682012a4a4f1973119f1c9b90745d1bd91fa2bab387344f044cb3586864d18d8a8a8a8860405180858152602001806020018381526020018281038252858582818152602001925060200280828437600083820152604051601f909101601f191690920182900397509095505050505050a4505050505050505050565b6001600160e01b03191660009081526020819052604090205460ff1690565b60046020528160005260406000208181548110610ddd57fe5b90600052602060002001600091509150505481565b60038054604080516020601f6002600019610100600188161502019095169490940493840181900481028201810190925282815260609390929091830182828015610e7e5780601f10610e5357610100808354040283529160200191610e7e565b820191906000526020600020905b815481529060010190602001808311610e6157829003601f168201915b50505050509050919050565b8151835114610eca5760405162461bcd60e51b8152600401808060200182810382526028815260200180613fbf6028913960400191505060405180910390fd5b6001600160a01b038416610f0f5760405162461bcd60e51b8152600401808060200182810382526025815260200180613e5b6025913960400191505060405180910390fd5b610f176129c5565b6001600160a01b0316856001600160a01b03161480610f425750610f4285610f3d6129c5565b612117565b610f7d5760405162461bcd60e51b8152600401808060200182810382526032815260200180613e806032913960400191505060405180910390fd5b6000610f876129c5565b9050610f97818787878787611180565b60005b8451811015611098576000858281518110610fb157fe5b602002602001015190506000858381518110610fc957fe5b60200260200101519050611036816040518060600160405280602a8152602001613ef8602a91396001600086815260200190815260200160002060008d6001600160a01b03166001600160a01b03168152602001908152602001600020546129ca9092919063ffffffff16565b60008381526001602090815260408083206001600160a01b038e811685529252808320939093558a168152205461106d9082612689565b60009283526001602081815260408086206001600160a01b038d168752909152909320555001610f9a565b50846001600160a01b0316866001600160a01b0316826001600160a01b03167f4a39dc06d4c0dbc64b70af90fd698a233a518aa5d07e595d983b8c0526c8f7fb8787604051808060200180602001838103835285818151815260200191508051906020019060200280838360005b8381101561111e578181015183820152602001611106565b50505050905001838103825284818151815260200191508051906020019060200280838360005b8381101561115d578181015183820152602001611145565b5050505090500194505050505060405180910390a4611180818787878787612a61565b505050505050565b60006111948383612645565b9392505050565b606081518351146111dd5760405162461bcd60e51b8152600401808060200182810382526029815260200180613f966029913960400191505060405180910390fd5b6060835167ffffffffffffffff811180156111f757600080fd5b50604051908082528060200260200182016040528015611221578160200160208202803683370190505b50905060005b84518110156113115760006001600160a01b031685828151811061124757fe5b60200260200101516001600160a01b031614156112955760405162461bcd60e51b8152600401808060200182810382526031815260200180613d926031913960400191505060405180910390fd5b600160008583815181106112a557fe5b6020026020010151815260200190815260200160002060008683815181106112c957fe5b60200260200101516001600160a01b03166001600160a01b03168152602001908152602001600020548282815181106112fe57fe5b6020908102919091010152600101611227565b509392505050565b6001821161136e576040805162461bcd60e51b815260206004820181905260248201527f676f7420656d707479206f722073696e676c65746f6e20706172746974696f6e604482015290519081900360640190fd5b600084815260046020526040902054806113cc576040805162461bcd60e51b815260206004820152601a60248201527918dbdb991a5d1a5bdb881b9bdd081c1c995c185c9959081e595d60321b604482015290519081900360640190fd5b6000196001821b018060608567ffffffffffffffff811180156113ee57600080fd5b50604051908082528060200260200182016040528015611418578160200160208202803683370190505b50905060608667ffffffffffffffff8111801561143457600080fd5b5060405190808252806020026020018201604052801561145e578160200160208202803683370190505b50905060005b8781101561157657600089898381811061147a57fe5b90506020020135905060008111801561149257508581105b6114db576040805162461bcd60e51b815260206004820152601560248201527419dbdd081a5b9d985b1a59081a5b99195e081cd95d605a1b604482015290519081900360640190fd5b808582161461152a576040805162461bcd60e51b81526020600482015260166024820152751c185c9d1a5d1a5bdb881b9bdd08191a5cda9bda5b9d60521b604482015290519081900360640190fd5b9384189361153d8d610b638e8e85612316565b84838151811061154957fe5b6020026020010181815250508783838151811061156257fe5b602090810291909101015250600101611464565b508261165b578961164257604080516323b872dd60e01b81523360048201523060248201526044810188905290516001600160a01b038d16916323b872dd9160648083019260209291908290030181600087803b1580156115d657600080fd5b505af11580156115ea573d6000803e3d6000fd5b505050506040513d602081101561160057600080fd5b505161163d5760405162461bcd60e51b8152600401808060200182810382526023815260200180613eb26023913960400191505060405180910390fd5b611656565b611656336116508d8d612645565b8861277e565b611670565b611670336116508d610b638e8e898b18612316565b61168b33838360405180602001604052806000815250612cf2565b888a336001600160a01b03167f2e6bb91f8cbcda0c93623c54d0403a43514fabc40084ec96b6d5379a747862988e8c8c8c60405180856001600160a01b03166001600160a01b03168152602001806020018381526020018281038252858582818152602001925060200280828437600083820152604051601f909101601f191690920182900397509095505050505050a45050505050505050505050565b6000611736848484612f40565b949350505050565b6000611736848484612316565b600182116117a0576040805162461bcd60e51b815260206004820181905260248201527f676f7420656d707479206f722073696e676c65746f6e20706172746974696f6e604482015290519081900360640190fd5b600084815260046020526040902054806117fe576040805162461bcd60e51b815260206004820152601a60248201527918dbdb991a5d1a5bdb881b9bdd081c1c995c185c9959081e595d60321b604482015290519081900360640190fd5b6000196001821b018060608567ffffffffffffffff8111801561182057600080fd5b5060405190808252806020026020018201604052801561184a578160200160208202803683370190505b50905060608667ffffffffffffffff8111801561186657600080fd5b50604051908082528060200260200182016040528015611890578160200160208202803683370190505b50905060005b878110156119a85760008989838181106118ac57fe5b9050602002013590506000811180156118c457508581105b61190d576040805162461bcd60e51b815260206004820152601560248201527419dbdd081a5b9d985b1a59081a5b99195e081cd95d605a1b604482015290519081900360640190fd5b808582161461195c576040805162461bcd60e51b81526020600482015260166024820152751c185c9d1a5d1a5bdb881b9bdd08191a5cda9bda5b9d60521b604482015290519081900360640190fd5b9384189361196f8d610b638e8e85612316565b84838151811061197b57fe5b6020026020010181815250508783838151811061199457fe5b602090810291909101015250600101611896565b506119b4338383612f8d565b82611ab85789611a8f576040805163a9059cbb60e01b81523360048201526024810188905290516001600160a01b038d169163a9059cbb9160448083019260209291908290030181600087803b158015611a0d57600080fd5b505af1158015611a21573d6000803e3d6000fd5b505050506040513d6020811015611a3757600080fd5b5051611a8a576040805162461bcd60e51b815260206004820181905260248201527f636f756c64206e6f742073656e6420636f6c6c61746572616c20746f6b656e73604482015290519081900360640190fd5b611ab3565b611ab333611a9d8d8d612645565b88604051806020016040528060008152506128b7565b611acd565b611acd33611a9d8d610b638e8e898b18612316565b888a336001600160a01b03167f6f13ca62553fcc2bcd2372180a43949c1e4cebba603901ede2f4e14f36b282ca8e8c8c8c60405180856001600160a01b03166001600160a01b03168152602001806020018381526020018281038252858582818152602001925060200280828437600083820152604051601f909101601f191690920182900397509095505050505050a45050505050505050505050565b816001600160a01b0316611b7d6129c5565b6001600160a01b03161415611bc35760405162461bcd60e51b8152600401808060200182810382526029815260200180613f6d6029913960400191505060405180910390fd5b8060026000611bd06129c5565b6001600160a01b03908116825260208083019390935260409182016000908120918716808252919093529120805460ff191692151592909217909155611c146129c5565b60408051841515815290516001600160a01b0392909216917f17307eab39ab6107e8899845ad3d59bd9653f200f220920489ca2b5937696c319181900360200190a35050565b8060018111611c9a5760405162461bcd60e51b815260040180806020018281038252602a815260200180613f43602a913960400191505060405180910390fd5b6000611ca7338684612f40565b6000818152600460205260409020549091508214611d0c576040805162461bcd60e51b815260206004820152601f60248201527f636f6e646974696f6e206e6f74207072657061726564206f7220666f756e6400604482015290519081900360640190fd5b60008181526005602052604090205415611d6d576040805162461bcd60e51b815260206004820152601e60248201527f7061796f75742064656e6f6d696e61746f7220616c7265616479207365740000604482015290519081900360640190fd5b6000805b83811015611e52576000868683818110611d8757fe5b905060200201359050611da3818461268990919063ffffffff16565b600085815260046020526040902080549194509083908110611dc157fe5b9060005260206000200154600014611e20576040805162461bcd60e51b815260206004820152601c60248201527f7061796f7574206e756d657261746f7220616c72656164792073657400000000604482015290519081900360640190fd5b6000848152600460205260409020805482919084908110611e3d57fe5b60009182526020909120015550600101611d71565b5060008111611e9f576040805162461bcd60e51b81526020600482015260146024820152737061796f757420697320616c6c207a65726f657360601b604482015290519081900360640190fd5b60008281526005602090815260408083208490556004825291829020825186815291820183815281549383018490528993339387937fb44d84d3289691f71497564b85d4233648d9dbae8cbdbb4329f301c3a0185894938a93919291606083019084908015611f2d57602002820191906000526020600020905b815481526020019060010190808311611f19575b5050935050505060405180910390a4505050505050565b60009081526004602052604090205490565b610100811115611fa6576040805162461bcd60e51b8152602060048201526016602482015275746f6f206d616e79206f7574636f6d6520736c6f747360501b604482015290519081900360640190fd5b60018111611fe55760405162461bcd60e51b815260040180806020018281038252602a815260200180613f43602a913960400191505060405180910390fd5b6000611ff2848484612f40565b60008181526004602052604090205490915015612056576040805162461bcd60e51b815260206004820152601a60248201527f636f6e646974696f6e20616c7265616479207072657061726564000000000000604482015290519081900360640190fd5b8167ffffffffffffffff8111801561206d57600080fd5b50604051908082528060200260200182016040528015612097578160200160208202803683370190505b50600082815260046020908152604090912082516120bb9391929190910190613bd2565b5082846001600160a01b0316827fab3760c3bd2bb38b5bcf54dc79802ed67338b4cf29f3054ded67ed24661e4177856040518082815260200191505060405180910390a450505050565b60056020526000908152604090205481565b6001600160a01b03918216600090815260026020908152604080832093909416825291909152205460ff1690565b6001600160a01b03841661218a5760405162461bcd60e51b8152600401808060200182810382526025815260200180613e5b6025913960400191505060405180910390fd5b6121926129c5565b6001600160a01b0316856001600160a01b031614806121b857506121b885610f3d6129c5565b6121f35760405162461bcd60e51b8152600401808060200182810382526029815260200180613e126029913960400191505060405180910390fd5b60006121fd6129c5565b905061221d81878761220e886131fb565b612217886131fb565b87611180565b61226a836040518060600160405280602a8152602001613ef8602a913960008781526001602090815260408083206001600160a01b038d168452909152902054919063ffffffff6129ca16565b60008581526001602090815260408083206001600160a01b038b811685529252808320939093558716815220546122a19084612689565b60008581526001602090815260408083206001600160a01b03808b168086529184529382902094909455805188815291820187905280518a8416938616927fc3d58168c5ae7397731d063d5bbf3d657854427343f4c083240f7aacaa2d0f6292908290030190a461118081878787878761323f565b6040805160208082018590528183018490528251808303840181526060909201909252805191012060009060ff81901c151582805b600080516020613e3b833981519152600185089350600080516020613e3b8339815191526003600080516020613e3b833981519152808788098709089050612392816133c2565b915080600080516020613e3b833981519152838409141561234b578280156123bb575060028206155b806123d25750821580156123d25750600282066001145b156123eb5781600080516020613e3b8339815191520391505b8780156126225760fe81901c151593506001600160fe1b0316600080516020613e3b8339815191526003600080516020613e3b8339815191528084850984090891506000612438836133c2565b9050848015612448575060028106155b8061245f57508415801561245f5750600281066001145b1561247557600080516020613e3b833981519152035b82600080516020613e3b833981519152828309146124da576040805162461bcd60e51b815260206004820152601c60248201527f696e76616c696420706172656e7420636f6c6c656374696f6e20494400000000604482015290519081900360640190fd5b6000606060066001600160a01b031688878686604051602001808581526020018481526020018381526020018281526020019450505050506040516020818303038152906040526040518082805190602001908083835b602083106125505780518252601f199092019160209182019101612531565b6001836020036101000a038019825116818451168082178552505050505050905001915050600060405180830381855afa9150503d80600081146125b0576040519150601f19603f3d011682016040523d82523d6000602084013e6125b5565b606091505b5091509150816125fb576040805162461bcd60e51b815260206004820152600c60248201526b1958d859190819985a5b195960a21b604482015290519081900360640190fd5b80806020019051604081101561261057600080fd5b50805160209091015190985095505050505b600283066001141561263857600160fe1b851894505b5092979650505050505050565b6040805160609390931b6bffffffffffffffffffffffff19166020808501919091526034808501939093528151808503909301835260549093019052805191012090565b600082820183811015611194576040805162461bcd60e51b815260206004820152601b60248201527f536166654d6174683a206164646974696f6e206f766572666c6f770000000000604482015290519081900360640190fd5b6000826126f257506000610a20565b828202828482816126ff57fe5b04146111945760405162461bcd60e51b8152600401808060200182810382526021815260200180613f226021913960400191505060405180910390fd5b600061119483836040518060400160405280601a81526020017f536166654d6174683a206469766973696f6e206279207a65726f000000000000815250613b67565b6001600160a01b0383166127c35760405162461bcd60e51b8152600401808060200182810382526023815260200180613ed56023913960400191505060405180910390fd5b60006127cd6129c5565b90506127fd818560006127df876131fb565b6127e8876131fb565b60405180602001604052806000815250611180565b61284a82604051806060016040528060248152602001613dee6024913960008681526001602090815260408083206001600160a01b038b168452909152902054919063ffffffff6129ca16565b60008481526001602090815260408083206001600160a01b03808a16808652918452828520959095558151888152928301879052815193949093908616927fc3d58168c5ae7397731d063d5bbf3d657854427343f4c083240f7aacaa2d0f6292908290030190a450505050565b6001600160a01b0384166128fc5760405162461bcd60e51b8152600401808060200182810382526021815260200180613fe76021913960400191505060405180910390fd5b60006129066129c5565b90506129188160008761220e886131fb565b60008481526001602090815260408083206001600160a01b038916845290915290205461294b908463ffffffff61268916565b60008581526001602090815260408083206001600160a01b03808b16808652918452828520959095558151898152928301889052815190948616927fc3d58168c5ae7397731d063d5bbf3d657854427343f4c083240f7aacaa2d0f6292908290030190a46129be8160008787878761323f565b5050505050565b335b90565b60008184841115612a595760405162461bcd60e51b81526004018080602001828103825283818151815260200191508051906020019080838360005b83811015612a1e578181015183820152602001612a06565b50505050905090810190601f168015612a4b5780820380516001836020036101000a031916815260200191505b509250505060405180910390fd5b505050900390565b612a73846001600160a01b0316613bcc565b1561118057836001600160a01b031663bc197c8187878686866040518663ffffffff1660e01b815260040180866001600160a01b03166001600160a01b03168152602001856001600160a01b03166001600160a01b03168152602001806020018060200180602001848103845287818151815260200191508051906020019060200280838360005b83811015612b13578181015183820152602001612afb565b50505050905001848103835286818151815260200191508051906020019060200280838360005b83811015612b52578181015183820152602001612b3a565b50505050905001848103825285818151815260200191508051906020019080838360005b83811015612b8e578181015183820152602001612b76565b50505050905090810190601f168015612bbb5780820380516001836020036101000a031916815260200191505b5098505050505050505050602060405180830381600087803b158015612be057600080fd5b505af1925050508015612c0557506040513d6020811015612c0057600080fd5b505160015b612c9a57612c11613c3d565b80612c1c5750612c63565b60405162461bcd60e51b8152602060048201818152835160248401528351849391928392604401919085019080838360008315612a1e578181015183820152602001612a06565b60405162461bcd60e51b8152600401808060200182810382526034815260200180613ce66034913960400191505060405180910390fd5b6001600160e01b0319811663bc197c8160e01b14612ce95760405162461bcd60e51b8152600401808060200182810382526028815260200180613d1a6028913960400191505060405180910390fd5b50505050505050565b6001600160a01b038416612d375760405162461bcd60e51b8152600401808060200182810382526021815260200180613fe76021913960400191505060405180910390fd5b8151835114612d775760405162461bcd60e51b8152600401808060200182810382526028815260200180613fbf6028913960400191505060405180910390fd5b6000612d816129c5565b9050612d9281600087878787611180565b60005b8451811015612e5657612e0d60016000878481518110612db157fe5b602002602001015181526020019081526020016000206000886001600160a01b03166001600160a01b0316815260200190815260200160002054858381518110612df757fe5b602002602001015161268990919063ffffffff16565b60016000878481518110612e1d57fe5b602090810291909101810151825281810192909252604090810160009081206001600160a01b038b168252909252902055600101612d95565b50846001600160a01b031660006001600160a01b0316826001600160a01b03167f4a39dc06d4c0dbc64b70af90fd698a233a518aa5d07e595d983b8c0526c8f7fb8787604051808060200180602001838103835285818151815260200191508051906020019060200280838360005b83811015612edd578181015183820152602001612ec5565b50505050905001838103825284818151815260200191508051906020019060200280838360005b83811015612f1c578181015183820152602001612f04565b5050505090500194505050505060405180910390a46129be81600087878787612a61565b6040805160609490941b6bffffffffffffffffffffffff19166020808601919091526034850193909352605480850192909252805180850390920182526074909301909252815191012090565b6001600160a01b038316612fd25760405162461bcd60e51b8152600401808060200182810382526023815260200180613ed56023913960400191505060405180910390fd5b80518251146130125760405162461bcd60e51b8152600401808060200182810382526028815260200180613fbf6028913960400191505060405180910390fd5b600061301c6129c5565b905061303c81856000868660405180602001604052806000815250611180565b60005b835181101561311a576130d183828151811061305757fe5b6020026020010151604051806060016040528060248152602001613dee602491396001600088868151811061308857fe5b602002602001015181526020019081526020016000206000896001600160a01b03166001600160a01b03168152602001908152602001600020546129ca9092919063ffffffff16565b600160008684815181106130e157fe5b602090810291909101810151825281810192909252604090810160009081206001600160a01b038a16825290925290205560010161303f565b5060006001600160a01b0316846001600160a01b0316826001600160a01b03167f4a39dc06d4c0dbc64b70af90fd698a233a518aa5d07e595d983b8c0526c8f7fb8686604051808060200180602001838103835285818151815260200191508051906020019060200280838360005b838110156131a1578181015183820152602001613189565b50505050905001838103825284818151815260200191508051906020019060200280838360005b838110156131e05781810151838201526020016131c8565b5050505090500194505050505060405180910390a450505050565b60408051600180825281830190925260609182919060208083019080368337019050509050828160008151811061322e57fe5b602090810291909101015292915050565b613251846001600160a01b0316613bcc565b1561118057836001600160a01b031663f23a6e6187878686866040518663ffffffff1660e01b815260040180866001600160a01b03166001600160a01b03168152602001856001600160a01b03166001600160a01b0316815260200184815260200183815260200180602001828103825283818151815260200191508051906020019080838360005b838110156132f25781810151838201526020016132da565b50505050905090810190601f16801561331f5780820380516001836020036101000a031916815260200191505b509650505050505050602060405180830381600087803b15801561334257600080fd5b505af192505050801561336757506040513d602081101561336257600080fd5b505160015b61337357612c11613c3d565b6001600160e01b0319811663f23a6e6160e01b14612ce95760405162461bcd60e51b8152600401808060200182810382526028815260200180613d1a6028913960400191505060405180910390fd5b6000600080516020613e3b833981519152808380099150808283098181820990508181840992508183850993508184840992508183840990508181820982818309905082818209905082818209905082818309915082828609945082858609915082828309915082828509935082848509915082828309915082828309915082828509915082828609945082858609915082828309915082828309915082828609915082828509935082848609945082858609915082828309915082828509935082848509915082828309905082818209905082818209905082818309915082828609945082858509935082848509915082828309915082828309915082828609945082858609915082828309915082828609915082828309915082828309915082828609915082828509935082848509915082828309905082818209905082818309905082818509905082818209905082818209905082818209905082818209905082818309915082828609945082858609915082828609915082828509935082848509915082828509915082828309915082828309905082818309905082818209838182099050838182099050838182099050838182099050838183099150508281830991508282860994508285850993508284850991508282860994508285850993508284860994508285850993508284860994508285860991508282860991508282830991508282850993508284850991508282830991508282860994508285850993508284850991508282850991508282860994508285850993508284860994508285850993508284850991508282830991508282850991508282860994508285860991508282860991508282850993508284860994508285850993508284860994508285850993508284850991508282850991508282830991508282860994508285850993508284850991508282850991508282830991508282860994508285860991508282830990508281820990508281830990508281860990508281820990508281820990508281820990508281820990508281830991508282850993508284860994508285850993508284860994508285860991508282860991508282830991508282830991508282830991508282860991508282850993508284850991508282850991508282830991508282860994508285860991508282860991508282850993508284860994508285860991508282830991508282850993508284860994508285860991508282850993508284860994508285850993508284850991508282850991508282860994508285850993508284850991508282850991508282830991508282830991508282860994508285860991508282830991508282830991508282860991508282850993508284860994508285860991508282860990508281820990508281820990508281830991508282850993508284850991508282860994508285850993508284860994508285850993508284860994508285850993508284850991508282850990508281850991508282830991508282830991508282820991505081818509935081848409925081838509935081848409925081838509935081848509905081818509905081818409925050808284099250808384099250808384099250808384099250808384099250808384099250808384099250808384099250808384099250808384099250808384099250808384099250808384099250808384099250808384099250808384099250808384099250808384099250808384099250808384099250808384099250808384099250808384099250808384099250808384099250808384099250808384099250808384099250808384099250808384099250808384099250808384099250808384099250808384099250808384099250808384099250808384099250808384099250808384099250808384099250808384099250808384099250808384099250808384099250808384099250808384099250808384099250808384099250808384099250808384099250808384099250808384099250808384099250808384099250808384099250808384099250808384099250808384099250808384099250808384099250808384099250808384099250808384099250808384099250808384099250808384099250808384099250808384099250808384099250808384099250808384099250808384099250808384099250808384099250808384099250808384099250808384099250808384099250808384099250808384099250808384099250808384099250808384099250808384099250808384099250808384099250808384099250808384099250808384099250808384099250808384099250808384099250808384099250808384099250808384099250808384099250808384099250808384099250808384099250808384099250808384099250808384099250808384099250808384099250808384099250808384099250808384099250808384099250808384099250808384099250808384099250808384099250808384099250808384099250808384099250808384099250808384099250808384099250808384099250808384099250808384099250808384099250808384099250808384099250808384099250808384099250808384099250808383099392505050565b60008183613bb65760405162461bcd60e51b8152602060048201818152835160248401528351909283926044909101919085019080838360008315612a1e578181015183820152602001612a06565b506000838581613bc257fe5b0495945050505050565b3b151590565b828054828255906000526020600020908101928215613c0d579160200282015b82811115613c0d578251825591602001919060010190613bf2565b50613c19929150613c1d565b5090565b6129c791905b80821115613c195760008155600101613c23565b60e01c90565b600060443d1015613c4d576129c7565b600481823e6308c379a0613c618251613c37565b14613c6b576129c7565b6040513d600319016004823e80513d67ffffffffffffffff8160248401118184111715613c9b57505050506129c7565b82840191508151925080831115613cb557505050506129c7565b503d83016020838301011115613ccd575050506129c7565b601f91909101601f191681016020016040529150509056fe455243313135353a207472616e7366657220746f206e6f6e2045524331313535526563656976657220696d706c656d656e746572455243313135353a204552433131353552656365697665722072656a656374656420746f6b656e73726573756c7420666f7220636f6e646974696f6e206e6f7420726563656976656420796574455243313135353a2062616c616e636520717565727920666f7220746865207a65726f2061646472657373455243313135353a2062617463682062616c616e636520717565727920666f7220746865207a65726f2061646472657373636f756c64206e6f74207472616e73666572207061796f757420746f206d6573736167652073656e646572455243313135353a206275726e20616d6f756e7420657863656564732062616c616e6365455243313135353a2063616c6c6572206973206e6f74206f776e6572206e6f7220617070726f76656430644e72e131a029b85045b68181585d97816a916871ca8d3c208c16d87cfd47455243313135353a207472616e7366657220746f20746865207a65726f2061646472657373455243313135353a207472616e736665722063616c6c6572206973206e6f74206f776e6572206e6f7220617070726f766564636f756c64206e6f74207265636569766520636f6c6c61746572616c20746f6b656e73455243313135353a206275726e2066726f6d20746865207a65726f2061646472657373455243313135353a20696e73756666696369656e742062616c616e636520666f72207472616e73666572536166654d6174683a206d756c7469706c69636174696f6e206f766572666c6f7774686572652073686f756c64206265206d6f7265207468616e206f6e65206f7574636f6d6520736c6f74455243313135353a2073657474696e6720617070726f76616c2073746174757320666f722073656c66455243313135353a206163636f756e747320616e6420696473206c656e677468206d69736d61746368455243313135353a2069647320616e6420616d6f756e7473206c656e677468206d69736d61746368455243313135353a206d696e7420746f20746865207a65726f2061646472657373a264697066735822122047e13a2ff34b9bf85392bdc892ccb625fe118c624444d899d771dfb5a67c414564736f6c63430006070033",
  "linkReferences": {},
  "deployedLinkReferences": {}
}