{
  "_format": "hh-sol-artifact-1",
  "contractName": "BankBucksVendor",
  "sourceName": "contracts/BankBucksVendor.sol",
  "abi": [
    {
      "inputs": [
        {
          "internalType": "address",
          "name": "tokenAddress",
          "type": "address"
        }
      ],
      "stateMutability": "nonpayable",
      "type": "constructor"
    },
    {
      "inputs": [],
      "name": "buyToken",
      "outputs": [],
      "stateMutability": "payable",
      "type": "function"
    }
  ],
  "bytecode": "0x608060405234801561001057600080fd5b506040516101833803806101838339818101604052602081101561003357600080fd5b5051600080546001600160a01b039092166001600160a01b031990921691909117905561011e806100656000396000f3fe608060405260043610601c5760003560e01c8063a4821719146021575b600080fd5b60276029565b005b600080546040805163a9059cbb60e01b815233600482015234602482015290516001600160a01b039092169263a9059cbb926044808401936020939083900390910190829087803b158015607c57600080fd5b505af1158015608f573d6000803e3d6000fd5b505050506040513d602081101560a457600080fd5b505160e6576040805162461bcd60e51b815260206004820152600d60248201526c54524153464552204641494c5360981b604482015290519081900360640190fd5b56fea264697066735822122003513bfbf9d51588463680bb84a43d7b56f55540ecdd502d1bc5422e594883fd64736f6c63430006070033",
  "linkReferences": {},
  "deployedLinkReferences": {}
}